:020000040800F2
:1000000030B6002081020008B1120008A3030008E6
:10001000AD120008650B00081B2900080000000055
:10002000000000000000000000000000B1220008F5
:10003000FD0E000800000000EF0200083524000853
:100040009B0200089B0200089B0200089B0200081C
:100050009B0200089B0200089B0200089B0200080C
:100060009B0200089B0200089B0200089B020008FC
:10007000F50B00089B0200089B0200089B02000889
:100080000D0C00089B0200089B0200089B02000860
:100090009B0200089B0200089B0200089B020008CC
:1000A0009B0200089B0200089B0200089B020008BC
:1000B0009B0200089B0200089B0200089B020008AC
:1000C0009B0200089B0200089B0200089B0200089C
:1000D0009B020008C9260008E1260008F92600084E
:1000E0009B0200089B0200089B0200089B0200087C
:1000F0009B0200089B0200089B0200089B0200086C
:100100009B0200089B0200089B0200089B0200085B
:100110009B0200089B0200089B0200089B0200084B
:100120009B020008250C00089B0200089B020008A7
:100130009B0200089B0200089B0200089B0200082B
:100140009B0200089B0200089B0200089B0200081B
:100150003D0C00089B0200089B02000811270008C4
:100160009B0200089B0200089B0200089B020008FB
:100170009B0200089B0200089B0200089B020008EB
:100180009B0200089B02000800F002F800F069F8EA
:100190000AA090E8000C82448344AAF10107DA45E2
:1001A00001D100F05EF8AFF2090EBAE80F0013F0CB
:1001B000010F18BFFB1A43F00103184710B90100E3
:1001C00030B901000A444FF0000C10F8013B13F065
:1001D000070408BF10F8014B1D1108BF10F8015BA0
:1001E000641E05D010F8016B641E01F8016BF9D193
:1001F00013F0080F1EBF10F8014BAD1C0C1B09D1EA
:100200006D1E58BF01F801CBFAD505E014F8016B5B
:1002100001F8016B6D1EF9D59142D6D370470000ED
:100220000023002400250026103A28BF78C1FBD8FF
:10023000520728BF30C148BF0B6070471FB515F08B
:100240005DFE9DE8030000F00FFB00F01DFC0400C4
:100250000020002115F03CFE401C60601FBD10B561
:1002600010BD00F0ECFB1146FFF7E8FF0FF04AFA73
:1002700000F01CFC03B4FFF7F2FF03BC00F04CFCE1
:100280000948804709480047FEE7FEE7FEE7FEE72A
:10029000FEE7FEE7FEE7FEE7FEE7FEE70448054966
:1002A000054A064B704700004524000889010008F4
:1002B00030B0002030B6002030B2002030B2002034
:1002C000EFF3108072B6704780F3108870473A4A97
:1002D0001368012B04D04FF001031360374A1060FC
:1002E000374A116037484FF0805101607047EFF393
:1002F000108272B63048016851B34FF000010160BE
:100300002E48016891B1EFF309811EF0100F08BF6C
:1003100021ED108B21E9F00F4FF000041EF0100FBB
:1003200008BF012441F8044D0068016024490968B0
:10033000096808C9B1E8F00F002B18BFB1EC108BA9
:1003400081F309884EF0100E002B18BF2EF0100E0E
:1003500082F310884EF0040E704719490860EFF3DD
:10036000148222F0040282F3148814494FF0000032
:10037000086011494FF00100086013484FF47F01F5
:10038000D0F8002041EA020101600E484FF0805190
:1003900001600E480068006880F3088861B662B6A4
:1003A0007047EFF3098000B510F012FF5DF804EB21
:1003B0004EF0040E70470000E4010020DC01002034
:1003C000E001002004ED00E020ED00E008ED00E099
:1003D00070B5064600F028FA056806F10B0020F01B
:1003E0000704B4429CBF002070BD2B466A68BAB1B6
:1003F0001068A04210D304F1080188423CBF506845
:10040000586007D35168101941601168091B0160D9
:1004100058601460101D70BD13465268002AE7D161
:100420002146284600F00CFA0028DED170BD70B5D8
:100430000446051F00F0F8F90068002C14BF44685A
:1004400070BD002C18BFAC423CBF20466468F8D396
:1004500001680A18AA4218BF456003D12A680546F8
:100460001144016028684119A1421CBF6C6070BD35
:100470006168696021680844286070BD70B50646EF
:1004800000F0D6F90468054630460A22002100F043
:1004900021FA2C6070BD40EA0103024630B59B078B
:1004A00010D14FF0013400E008C208C91D1B9D4364
:1004B00015EAC41FF8D013F0FF0102F8011B0DD09C
:1004C0001B0AF8E711F8013B002B02F8013B05D0AD
:1004D00011F8013B002B02F8013BF3D130BD10B500
:1004E000431C02E010F8011B71B18107FAD14FF0F3
:1004F000013202C88C1A8C4314EAC211F9D0C01A16
:100500000A0603D0C01E10BDC01A10BD0A0401D0D7
:10051000801E10BD0902FCD0401E10BD40EA010340
:1005200070B59B072ED14FF00136042A2AD308C894
:1005300010C99D1B9D43121F15EAC61517D0D8B2CE
:10054000E1B2401A50EA056110D198B2A1B2401A46
:1005500050EA05410AD123F07F4024F07F41401A40
:1005600050EA052102D1180EA0EB146070BDA34221
:10057000DBD018BA21BA884201D9012070BD4FF0F2
:10058000FF3070BD0AB9002070BD10F8013B11F8B2
:10059000014B63B1A3420AD1521E08D010F8013BAF
:1005A00011F8014B1BB1A34201D1521EEDD1181B12
:1005B00070BD421E12F8013F002BFBD111F8013B28
:1005C000002B02F8013BF9D17047032A40F230803A
:1005D00010F0030C00F0158011F8013BBCF1020F84
:1005E000624498BF11F801CB00F8013B38BF11F805
:1005F000013BA2F1040298BF00F801CB38BF00F81C
:10060000013B11F0030300F02580083AC0F0088098
:1006100051F8043B083A51F804CBA0E80810F5E77C
:10062000121D5CBF51F8043B40F8043BAFF300805F
:10063000D20724BF11F8013B11F801CB48BF11F8D4
:10064000012B24BF00F8013B00F801CB48BF00F8A4
:10065000012B704710B5203AC0F00B80B1E818505C
:10066000203AA0E81850B1E81850A0E81850BFF49C
:10067000F5AF5FEA027C24BFB1E81850A0E818503B
:1006800044BF18C918C0BDE810405FEA827C24BF8F
:1006900051F8043B40F8043B08BF7047D20728BF1D
:1006A00031F8023B48BF11F8012B28BF20F8023B6C
:1006B00048BF00F8012B70474FF000020429C0F03A
:1006C000128010F0030C00F01B80CCF1040CBCF184
:1006D000020F18BF00F8012BA8BF20F8022BA1EBD6
:1006E0000C0100F00DB85FEAC17C24BF00F8012BBB
:1006F00000F8012B48BF00F8012B70474FF00002B3
:1007000000B5134694469646203922BFA0E80C5007
:10071000A0E80C50B1F12001BFF4F7AF090728BFE2
:10072000A0E80C5048BF0CC05DF804EB890028BF5E
:1007300040F8042B08BF704748BF20F8022B11F087
:10074000804F18BF00F8012B704710B5044610F019
:10075000030F08BF11F0030F40F015804FF0013E6A
:10076000121FC0F20E8051F8043BA3EB0E0C2CEAD2
:10077000030C1CEACE1C08BF40F8043BF0D0A1F1EA
:10078000040102F10402521E08DB11F8013B002BA8
:1007900000F8013BF7D11146FFF78EFF204610BD50
:1007A0004FF0013C50F8042B51F8043B9A4221D100
:1007B000A2EB0C03934313EACC1317D150F8042B8C
:1007C00051F8043B9A4215D1A2EB0C03934313EA70
:1007D000CC130BD150F8042B51F8043B9A4209D1A9
:1007E000A2EB0C03934313EACC13DBD04FF00000D1
:1007F000704700BFD01A01BAB1FA81F101F01801B7
:1008000022FA01F0CB40C1F12001DBB2C0B2C01A24
:100810002CFA01F3D11A914311EAC311E6D17047C2
:10082000704770477047000000487047D8AF0020FD
:1008300000487047D0AF002070477047704770473E
:1008400038B504460A4600206946AFF30080002808
:1008500008BF38BD02460099204600F07FF801200D
:1008600038BD012000F0E3B8F8B5AFF300800546CD
:1008700000200C46102000BF0646A819A0420DD942
:10088000324669460020AFF30080070008BF00F041
:10089000CEF80098A04218BF0546C419FFF7C4FF60
:1008A00005600746F01D20F007004619284600F0B5
:1008B0000AF8B44208BFF8BDA21B31463868BDE84B
:1008C000F84000F04BB800210160C0E9011070470A
:1008D000102070472DE9F04791460F4680460446A8
:1008E000002614F8015B2DB100F030F80068405D7F
:1008F000C007F6D12B2D02D02D2D18D0641E4A46EC
:100900003946204600F044F827B13968A14201D1A8
:10091000C7F800804FF0020471050BD54042002853
:1009200003DDFFF785FF0460A007BDE8F08746F40C
:100930008066E4E70028F8DAFFF77AFF04606FF0DA
:100940000040F2E700487047D0AF002010B500F03B
:100950009BF8001D10BD00BF79550100034640689B
:100960008C46002818BF88423CBF03464068F8D335
:1009700018681844884207D00CF1030020F00700E3
:10098000001D411A521A0146081D0A60FFF74FBDAB
:100990002DE9F05F824615468B4600270AF10104D7
:1009A000B9460078302801D09DB113E014F8010B4E
:1009B0000127782803D0582801D045B10AE00DB1AD
:1009C000102D07D1002714F8010B102502E008258F
:1009D00000E00A250026B0460EE005FB080005FBF6
:1009E00006F101271FFA80F801EB1046B6F5803FAB
:1009F00000D3B94614F8010B294600F049F8002845
:100A0000EBDABBF1000F05D00FB1641E00E05446D5
:100A1000CBF80040B9F1000F06D0FFF709FF022123
:100A20000160C81EBDE8F09F48EA0640FAE710B52D
:100A300000F04AF8BDE8104000F041B87047754634
:100A4000FFF780FFAE4605006946534620F00700D9
:100A5000854618B020B5FFF721FCBDE820404FF0D7
:100A600000064FF000074FF000084FF0000B21F098
:100A70000701AC46ACE8C009ACE8C009ACE8C00965
:100A8000ACE8C0098D46704700487047F0AF0020C1
:100A90003A2800D2303820F02002412A01D3A2F1B6
:100AA0003700884201D34FF0FF30704710B504463D
:100AB000AFF300802046BDE81040FFF7DBBB002805
:100AC00001D000F029B8704710B5012805D00021E9
:100AD00003A000F027F8012010BD09A1F8E70000ED
:100AE00053494752544D454D3A204F7574206F6617
:100AF0002068656170206D656D6F7279000000007F
:100B00003A2048656170206D656D6F727920636F62
:100B1000727275707465640001491820ABBEFEE7FF
:100B20002600020070B505460C460A2000E06D1C48
:100B300000F011F835B128780028F8D102E0641CE3
:100B400000F009F814B120780028F8D1BDE8704011
:100B50000A20AFF3008008B569468DF80000032035
:100B6000ABBE08BD00BFFEE770B501460020002205
:100B700038E00D880E7A3544B54204DD0D880E7AD2
:100B8000AD1BABB200E00B884D880E7A3544ACB299
:100B9000174D55F822506D889D4221DB144D55F8B4
:100BA00022506D88A5421BDC8D880E7A3544B542F3
:100BB00004DD8D880E7AAD1BABB200E08B88CD884A
:100BC0000E7A3544ACB20A4D55F82250AD889D429C
:100BD00006DB074D55F82250AD88A54200DC012008
:100BE000551CEAB2024D2D1F2D789542C1DC70BD17
:100BF000E419002010B510F035FE034803F00EFB99
:100C000010F052FE10BD0000E816002010B510F0E4
:100C100029FE034803F002FB10F046FE10BD000061
:100C20008C16002010B510F01DFE034803F0F6FAF4
:100C300010F03AFE10BD00004417002010B510F06F
:100C400011FE034803F0EAFA10F02EFE10BD00007A
:100C5000301600200246094B9A4201D2084801E0B2
:100C60000648103801F000531BB1064B0B40C3601F
:100C700002E0044B0B4083607047000010640240A8
:100C8000006002407D0F7D0F21B1026842F0010239
:100C9000026003E0026822F001020260704770B552
:100CA0000446656C666D0121480501F063F9012178
:100CB000880501F05FF93268206DC0F38F2120466E
:100CC00003F0CDFA4021286801F02EFD012240F208
:100CD0002441286801F08CFD01224021286801F0A0
:100CE00047FD0121A868FFF7CFFF70BD016821F023
:100CF000010101600021016041608160C16001610A
:100D0000212141614A49884204D13D21484A103A93
:100D100091608CE046491831884205D14FF47461E6
:100D2000434A103A916082E041493031884205D10E
:100D30004FF474113E4A103A916078E03C494831D2
:100D4000884205D14FF07461394A103A91606EE0E3
:100D500037496031884204D13649354A103AD1606A
:100D600065E033497831884204D13349304A103A3A
:100D7000D1605CE02E499031884204D12F492C4A41
:100D8000103AD16053E02A49A831884205D14FF08A
:100D90003D51274A103AD16049E02949884204D19F
:100DA0003D21274A083A116041E02549183188421F
:100DB00005D14FF47461224A083A116037E02049A6
:100DC0003031884205D14FF474111D4A083A116040
:100DD0002DE01B494831884205D14FF07461184A13
:100DE000083A116023E016496031884204D1114964
:100DF000134A121F11601AE011497831884204D158
:100E00000D490F4A121F116011E00D4990318842BF
:100E100004D10A490A4A121F116008E00849A831A2
:100E2000884204D14FF03D51054A121F11607047AE
:100E3000106002403D000020400F002000003D20D7
:100E400010640240014600200A6802F001020AB163
:100E5000012000E0002070470146486880B27047DA
:100E600030B503460A46002000240B4DAB4201D2A8
:100E70000A4901E00849103902F000550DB14C68EB
:100E800000E00C68064D2C4004EA02050DB101207B
:100E900000E0002030BD000010640240006002400D
:100EA0007D0F7D0F10B500220268134B1A40CC68ED
:100EB0000B6823434C6923438C692343CC69234348
:100EC0000C6A23434C6A23438C6A23434C6B2343B1
:100ED0008C6B23431A430260426922F00702D1E976
:100EE0000B3423431A4342610B6943604B688360B0
:100EF0008B68C36010BD00003F801CF0704700008D
:100F000051B18200A2F1C042126842F00103820096
:100F1000A2F1C042136009E08200A2F1C04212684F
:100F2000034B1A408300A3F1C0431A6070470000CE
:100F3000FEFF0F0030B50021002200230468A4004A
:100F4000A4F1C0442168424C2140D0E901452C4322
:100F5000C5682C4305692C4345692C4385692C439E
:100F6000C5692C43056A2C43456A2C43856A2C438A
:100F7000C56A2C43056B2C4321430468A400A4F1EB
:100F8000C04421608468082C0BD10468A400A4F13B
:100F9000C044246844F040050468A400A4F1C0449F
:100FA00025600468641CA400A4F1C044226802F017
:100FB0004042446B2468456B6D6844EA0514456BF8
:100FC000AD6844EA0524456BAD8944EA0544456BA8
:100FD0002D8A44EA0554456B2D7D44EA0564456B32
:100FE000AD692C4322430468641CA400A4F1C044EE
:100FF0002260C46AB4F5804F20D10468A400A4F133
:10100000C044D4F80431134C2340846B2468856BAE
:101010006D6844EA0514856BAD6844EA0524856B68
:10102000AD8944EA0544856BAD692C4323430468CC
:10103000A400A4F1C044C4F8043107E06FF0704587
:101040000468A400A4F1C044C4F8045130BD0000F9
:101050008000F7FF0000F0CF1CB502208DF80400DF
:1010600000208DF8060001208DF8070002208DF881
:1010700005004FF4C0600090072209211E4800F0CF
:1010800087F807220A211C4800F082F869461A48AE
:1010900000F036F80C20009007220221164800F0DC
:1010A00077F807220321144800F072F869461248C5
:1010B00000F026F84FF44060009007220A210F4804
:1010C00000F066F807220B210C4800F061F8694631
:1010D0000A4800F015F8C0200090082206210748B1
:1010E00000F056F808220721044800F051F869463C
:1010F000024800F005F81CBD000002400008024054
:10110000F0B50A4600210023002400BF3DE0012580
:1011100005FA01F3156805EA03049C4234D1056819
:101120004F000326BE40B543056015794E00B5401B
:101130000668354305601579012D02D01579022D19
:1011400016D185684F000326BE40B54385605579AA
:101150004E00B540866835438560456801268E405F
:10116000B5434560456896798E40B6B235434560D3
:10117000C5684F000326BE40B543C560D5794E0013
:10118000B540C6683543C560491C1029BFD3F0BDC2
:10119000F0B5002300244D07ED0E02FA05F3CE1042
:1011A00000F1200555F826504E07F70E0F26BE40D9
:1011B000B543CF1000F1200646F82750CE1000F1BD
:1011C000200555F8265045EA0304CE1000F120050D
:1011D00045F82640F0BD0246002013690B400BB1D4
:1011E000012000E000207047418370470183704771
:1011F0004CF6CC40014908607047000000300040C8
:1012000010B500F013F810BD70B505460C4645F258
:10121000555000F01FF8284600F010F8204600F066
:1012200013F800F003F8FFF7E3FF70BD4AF6AA20B9
:1012300001490860704700000030004001494860E3
:10124000704700000030004001498860704700008E
:101250000030004001490860704700000030004045
:101260001CB50121042000F085FE4FF400600090C1
:1012700001208DF8040000208DF8060003208DF871
:10128000050001208DF8070069460748FFF738FF81
:101290004FF400610448FFF7A7FF4FF416710420D4
:1012A000FFF7B2FF1CBD00000008024000BFFEE7D0
:1012B000704710B500214FF0006000F061F84FF466
:1012C000A06000F053F810BD38B5044620798DF8C1
:1012D000000000208DF8010001208DF802008DF83B
:1012E0000300684600F006F84021206801F01CFA6F
:1012F00038BD000070B5002100230F22C4781CB354
:10130000174C246804F4E064C4F5E064C4F30721D6
:10131000C1F10404E3B20A4144789C40E1B284780C
:10132000144021430C07210E0E4C057861550478BA
:1013300004F01F050124AC4005786D11AD0005F1E6
:10134000E025C5F8004109E0047804F01F050124F8
:10135000AC40054D0678761145F8264070BD00007A
:101360000CED00E000E400E080E100E00249014310
:10137000024A1160704700000000FA050CED00E021
:10138000024A0A400243024B1A60704780FFFF1F67
:1013900008ED00E000BF0A48006810F8080C084992
:1013A000096811F8041C08440549096801F8080C8B
:1013B00003480068001F0249086000BF7047000032
:1013C0004402002000BF0A48006850F8080C084991
:1013D000096851F8041C08440549096841F8080CDB
:1013E00003480068001F0249086000BF7047000002
:1013F0004402002000BF0A48006830F8080C084981
:10140000096831F8041C084400B20549096821F84C
:10141000080C03480068001F0149086000BF7047BE
:101420004402002000BF0A48006810F8080C084970
:10143000096811F8041C08400549096801F8080CFE
:1014400003480068001F0249086000BF70470000A1
:101450004402002000BF0A48006850F8080C084900
:10146000096851F8041C08400549096841F8080C4E
:1014700003480068001F0249086000BF7047000071
:101480004402002000BF0A48006830F9080C0849EF
:10149000096831F9041C08400549096821F8080C5D
:1014A00003480068001F0249086000BF7047000041
:1014B000440200200448006810F8040CC0430249AC
:1014C000096801F8040C70474402002004480068D1
:1014D00050F8040CC0430249096841F8040C7047F5
:1014E000440200200448006830F9040CC04302495B
:1014F000096821F8040C70474402002010B5A4B01C
:10150000DF48006800781390DD480068401CDC4923
:10151000086000201290DB480068001FD94908606D
:1015200011E0D848006802681398401E1299401ACA
:1015300014A941F82020D3480068001FD149086051
:101540001298401C1290DDE912018842E9D3CD487F
:10155000006800681190139811286ED2DFE800F03F
:10156000090E141D293747596E849CB6D2F4F2F146
:10157000F000002011998847109074E114980F90A2
:101580001199884710906EE115980F9014980E905D
:10159000119A0F999047109065E116980F90159841
:1015A0000E9014980D90119BDDE90E129847109043
:1015B00059E117980F9016980E9015980D90149861
:1015C0000C90119C0DA90EC9A04710904BE11898E2
:1015D000009017980F9016980E9015980D901498EB
:1015E0000C90119C0DA90EC9A04710903BE1DDE9BC
:1015F0001801CDE9000117980F9016980E901598D4
:101600000D9014980C90119C0DA90EC9A047109034
:1016100029E1DDE919211898CDE9012100901798F9
:101620000F9016980E9015980D9014980C90119C90
:101630000DA90EC9A047109015E111E1DDE919329D
:1016400018991B98CDE901320091039017980F90DB
:1016500016980E9015980D9014980C90119C0DA949
:101660000EC9A0471090FEE0DDE91923DDE91B104B
:10167000CDE90123CDE903101898009017980F9039
:1016800016980E9015980D9014980C90119C0DA919
:101690000EC9A0471090E6E0DDE91A23DDE91C1031
:1016A000CDE90223CDE90410DDE91801CDE90001FF
:1016B00017980F9016980E9015980D9014980C90FE
:1016C000119C0DA90EC9A0471090CCE0DDE91C3299
:1016D0001B991E98CDE9043203910690DDE919218A
:1016E0001898CDE90121009017980F9016980E9048
:1016F00015980D9014980C90119C0DA90EC9A04737
:101700001090B0E0DDE91C23DDE91E10CDE90423D3
:10171000CDE90610DDE9193218991B98CDE901329F
:101720000091039017980F9016980E9015980D90B1
:1017300014980C90119C0DA90EC9A047109092E02E
:1017400068E043E020E0FFE7DDE91E321D992098C4
:10175000CDE9063205910890DDE91923DDE91B0189
:10176000CDE90123CDE903011898009017980F9057
:1017700016980E9015980D9014980C90119C0DA928
:101780000EC9A04710906EE0DDE91E13DDE92002CE
:10179000CDE90613CDE90802DDE91A23DDE91C01D4
:1017A000CDE90223CDE90401DDE91801CDE900010D
:1017B00017980F9016980E9015980D9014980C90FD
:1017C000119C0DA90EC9A04710904CE0DDE9203115
:1017D000229A1F98CDE908310A920790DDE91B2370
:1017E000DDE91D01CDE90323CDE90501DDE919217D
:1017F0001898CDE90121009017980F9016980E9037
:1018000015980D9014980C90119C0DA90EC9A04725
:10181000109028E0DDE9213220992398CDE90932A2
:1018200008910B90DDE91D321C991F98CDE9053216
:1018300004910790DDE91823DDE91A10CDE90023B2
:10184000CDE9021017980F9016980E9015980D90EC
:1018500014980C90119C0DA90EC9A047109002E09D
:101860000020109000BF00BF06491098096808606A
:1018700004480068001D0349086024B010BD000042
:10188000480200204402002000BF0A48006810F807
:10189000080C0849096811F8041C90FBF1F005498F
:1018A000096801F8080C03480068001F0149086036
:1018B00000BF70474402002000BF0A48006850F88B
:1018C000080C0849096851F8041C90FBF1F005491F
:1018D000096841F8080C03480068001F01490860C6
:1018E00000BF70474402002000BF0B48006830F979
:1018F000080C0949096831F9041C90FBF1F000B2A9
:101900000549096821F8080C03480068001F0249CE
:10191000086000BF704700004402002008480068CB
:10192000007808490968087006480068001D0549E4
:10193000086003480068401C0149086070470000C7
:1019400048020020440200200F48006800780E4939
:101950000968497840EA01200B490968897840EA1A
:10196000014009490968C97840EA016007490968E6
:10197000086006480068001D0449086002480068C5
:10198000001D014908607047480200204402002001
:101990001049096809780F4A1268527841EA022111
:1019A0000C4A1268927841EA02410A4A1268D278D7
:1019B00041EA02600178084A126811700649096814
:1019C000091D054A116003490968091D014A116092
:1019D00070470000480200204402002004490968C2
:1019E00051F8040C0178024A126802F8041C70478E
:1019F000440200201049096809780F4A1268527899
:101A000041EA02210C4A1268927841EA02410A4AEC
:101A10001268D27841EA0260084A016812681160CF
:101A200006490968091D054A116003490968091D2D
:101A3000014A116070470000480200204402002063
:101A40000449096851F8040C024A0168126842F816
:101A5000041C7047440200201049096809780F4AA5
:101A60001268527841EA02210C4A1268927841EADF
:101A700002410A4A1268D27841EA02600188084AA3
:101A80001268118006490968091D054A1160034959
:101A90000968091D014A11607047000048020020D2
:101AA000440200200449096851F8040C0188024AE4
:101AB000126822F8041C7047440200200B4800689A
:101AC00000780A490968497840EA012000B20849CB
:101AD0000968088006480068001D05490860034839
:101AE0000068801C0149086070470000480200201F
:101AF0004402002000BF0B48006810F8080C094998
:101B0000096811F8041C90FBF1F201FB1200054971
:101B1000096801F8080C03480068001F01490860C3
:101B200000BF70474402002000BF0B48006850F817
:101B3000080C0949096851F8041C90FBF1F201FBFB
:101B400012000549096841F8080C03480068001FA5
:101B50000149086000BF70474402002000BF0B48E5
:101B6000006830F9080C0949096831F9041C90FB38
:101B7000F1F201FB12000549096821F8080C03483D
:101B80000068001F0149086000BF70474402002040
:101B900000BF0A48006810F8080C0849096811F8E5
:101BA000041C10FB01F00549096801F8080C034802
:101BB0000068001F0149086000BF70474402002010
:101BC00000BF0A48006850F8080C0849096851F835
:101BD000041C48430549096841F8080C034800689B
:101BE000001F0249086000BF704700004402002047
:101BF00000BF0B48006830F8080C0949096831F843
:101C0000041C10FB01F000B20549096821F8080C1A
:101C100003480068001F0249086000BF70470000C9
:101C2000440200207047000000BF0A48006810F816
:101C3000080C0849096811F8041C0843054909689B
:101C400001F8080C03480068001F0249086000BF43
:101C5000704700004402002000BF0A48006850F8A6
:101C6000080C0849096851F8041C0843054909682B
:101C700041F8080C03480068001F0249086000BFD3
:101C8000704700004402002000BF0A48006830F995
:101C9000080C0849096831F9041C0843054909681A
:101CA00021F8080C03480068001F0249086000BFC3
:101CB000704700004402002002480068001F0149EC
:101CC000086070474402002000BF0A48006810F80E
:101CD000080C0849096811F8041C8840054909687E
:101CE00001F8080C03480068001F0249086000BFA3
:101CF000704700004402002000BF0A48006850F806
:101D0000080C0849096811F8041C8840054909684D
:101D100041F8080C03480068001F0249086000BF32
:101D2000704700004402002000BF0A48006830F8F5
:101D3000080C0849096811F8041C884000B20549DC
:101D4000096821F8080C03480068001F0149086071
:101D500000BF70474402002000BF0A48006810F826
:101D6000080C0849096811F8041C0841054909686C
:101D700001F8080C03480068001F0249086000BF12
:101D8000704700004402002000BF0A48006850F875
:101D9000080C0849096811F8041C0841054909683C
:101DA00041F8080C03480068001F0249086000BFA2
:101DB000704700004402002000BF0A48006830F964
:101DC000080C0849096811F8041C0841054909680C
:101DD00021F8080C03480068001F0249086000BF92
:101DE00070470000440200200748006810F8040C07
:101DF0000549096851F8081C087003480068001F6D
:101E0000014908607047000044020020074800684C
:101E100050F8040C0549096851F8081C086003488B
:101E20000068001F0149086070470000440200205C
:101E30000748006830F8040C0549096851F8081C87
:101E4000088003480068001F0149086070470000CF
:101E50004402002000BF0A48006810F8080C084936
:101E6000096811F8041C401A0549096801F8080CB2
:101E700003480068001F0249086000BF7047000067
:101E80004402002000BF0A48006850F8080C0849C6
:101E9000096851F8041C401A0549096841F8080C02
:101EA00003480068001F0249086000BF7047000037
:101EB0004402002000BF0A48006830F8080C0849B6
:101EC000096831F8041C401A00B20549096821F874
:101ED000080C03480068001F0149086000BF7047F4
:101EE0004402002000BF0A48006810F8080C0849A6
:101EF000096811F8041C48400549096801F8080CF4
:101F000003480068001F0249086000BF70470000D6
:101F10004402002000BF0A48006850F8080C084935
:101F2000096851F8041C48400549096841F8080C43
:101F300003480068001F0249086000BF70470000A6
:101F40004402002000BF0A48006830F9080C084924
:101F5000096831F9041C48400549096821F8080C52
:101F600003480068001F0249086000BF7047000076
:101F70004402002029B1064A12680243044B1A6049
:101F800004E0034A12688243014B1A607047000064
:101F90003038024029B1064A12680243044B1A60E5
:101FA00004E0034A12688243014B1A607047000044
:101FB0003838024029B1064A12680243044B1A60BD
:101FC00004E0034A12688243014B1A607047000024
:101FD0004038024029B1064A12680243044B1A6095
:101FE00004E0034A12688243014B1A607047000004
:101FF0002038024029B1064A12680243044B1A6095
:1020000004E0034A12688243014B1A6070470000E3
:102010004438024029B1064A12680243044B1A6050
:1020200004E0034A12688243014B1A6070470000C3
:102030002438024010B501210846FFF79BFF01211B
:102040001020FFF7D7FF01210846FFF793FF01217A
:102050004804FFF7AFFF01210420FFF78BFF0121A8
:102060008804FFF7A7FF01210420FFF783FF012168
:102070002020FFF7BFFF10BDF0B500210022002493
:10208000022500260223324F3F6807F00C0121B1E0
:10209000042905D0082937D105E02E4F076036E026
:1020A0002D4F076033E02A4F3F1F3F68C7F380562C
:1020B000274F3F1F3F6807F03F036EB1264FB7FB26
:1020C000F3F7DFF88CC0ACF1040CDCF800C0CCF303
:1020D000881C07FB0CF40CE01E4FB7FBF3F7DFF88E
:1020E00070C0ACF1040CDCF800C0CCF3881C07FB1A
:1020F0000CF4174F3F1F3F68C7F301477F1C7D005B
:10210000B4FBF5F7076002E0124F076000BF00BFA5
:102110000F4F3F6807F0F0010909104F7A5C07681C
:10212000D74047600A4F3F6807F4E051890A0B4FD8
:102130007A5C4768D7408760054F3F6807F4604185
:10214000490B064F7A5C4768D740C760F0BD000076
:10215000083802400024F40000127A00A900002090
:1021600021B1028842F40052028004E002884DF658
:10217000FF731A400280704721B1028842F040028A
:10218000028004E002884FF6BF731A400280704755
:1021900010B504462448844208D101218014FFF779
:1021A00039FF0021A014FFF735FF3CE01F488442AF
:1021B00008D101210014FFF70DFF00212014FFF7C3
:1021C00009FF30E01A48844208D10121C013FFF70B
:1021D00001FF0021E013FFF7FDFE24E015488442D3
:1021E00008D101214014FFF715FF00216014FFF70B
:1021F00011FF18E01048844209D101210805FFF7BA
:1022000009FF00214FF48010FFF704FF0BE00B489B
:10221000844208D101214805FFF7FCFE00214FF45C
:102220000010FFF7F7FE10BD0030014000380040FD
:10223000003C004000340140005001400054014087
:102240000246002013890B400BB1012000E0002062
:1022500070470146888970478181704710B5002218
:10226000028802F441520B884C8823438C88234314
:10227000CC8823430C8923434C8923438C892343F3
:10228000CC8923431A430280838B4FF2FF7423408F
:1022900083830B8A038210BD0021018041808180ED
:1022A000C180018141818181C18107210182704703
:1022B000704700000CB50020019000903448006881
:1022C00040F480303249086000BF3148006800F4B3
:1022D000003000900198401C0190009818B90198B6
:1022E000B0F5A04FF1D12A48006800F4003010B1D9
:1022F0000120009001E0002000900098012846D1C4
:1023000023484030006840F0805021494031086047
:102310002048006840F440401E4908601C480830CE
:1023200000681B49083108600846006840F4004016
:1023300008600846006840F4A05008601648091F6D
:102340000860081F006840F08070091F086000BF27
:102350000F48006800F000700028F9D040F20570C6
:102360000E4908600A480830006820F00300084958
:10237000083108600846006840F00200086000BFAD
:1023800003480830006800F00C000828F8D10CBDA4
:10239000003802400070004019544007003C0240E1
:1023A000042808D14FF0E021096941F004014FF001
:1023B000E022116107E04FF0E021096921F00401FA
:1023C0004FF0E022116170477FB56846FFF754FE79
:1023D0004FF47A710198B0FBF1F4E4082146481EED
:1023E000B0F1807F00D31BE0481E4FF0E022506127
:1023F00050170F22002807DA13071E0E0B4B00F0B0
:102400000F052D1F5E5503E013071D0E084B1D54CD
:1024100000BF00204FF0E02290610720106100BF54
:102420006FF00400FFF7BCFF7FBD000018ED00E077
:1024300000E400E010B50FF015FA11F01BFD0FF0ED
:1024400033FA10BD10B51548006840F47000134908
:1024500008601348006840F001001149086000203E
:102460000F49083108600E4800680E4908400C49C1
:1024700008600D48091D0860081F006820F48020CE
:10248000091F0860002006490C310860FFF712FFA1
:102490004FF0006001498039086010BD88ED00E010
:1024A00000380240FFFFF6FE1030002430B58BB03C
:1024B00004460D4601210846FFF79CFD0121084610
:1024C000FFF758FD01220B212248FEF761FE4FF471
:1024D0000060099002208DF8280003208DF8290063
:1024E00000208DF82A0001208DF82B0009A9194839
:1024F000FEF706FEA8B2ADF818000020ADF81A00ED
:102500000794ADF8200006A9134800F09BF870204E
:10251000ADF804000120ADF806000C20ADF808006D
:102520000220ADF8100001A90B4800F03FF8082187
:10253000094800F077F80121074800F00FF8012161
:10254000054800F023F80121034800F013F80BB010
:1025500030BD0000000002400000014021B10288AF
:1025600042F08002028004E002884FF67F731A4036
:102570000280704721B1028842F00102028004E02B
:1025800002884FF6FE731A400280704731B1B0F8EE
:10259000442042F40042A0F8442005E0B0F8442072
:1025A000C2F30E02A0F844207047000070B500226C
:1025B00000230024058C4EF6FF7635400584038CFD
:1025C0008488828B48F6FF752A404FF6FF452A40E3
:1025D0000D884FF6FF7606EA05252A434DF6FF756E
:1025E0002B408D8906EA05352B434D8806EA0535D3
:1025F0002B430A4DA84202D0094DA84208D14BF600
:10260000FF752C400D8A4FF6FF7606EA85152C43A0
:10261000848082838D680564038470BD000001405E
:10262000000401400A460021818B4FF2FF731940DC
:102630004FF6FF7303EA0223194381837047016455
:102640007047000000220288184B98420ED0184BA9
:1026500098420BD0B0F1804F08D0164B984205D06D
:10266000154B984202D0154B984204D14FF68F7308
:102670001A404B881A43124B984207D0114B98428C
:1026800004D04FF6FF431A400B891A4302804B686F
:10269000C3620B880385054B984202D0044B9842D5
:1026A00001D18B7A038601238382704700000140A9
:1026B000000401400004004000080040000C0040FD
:1026C000001000400014004010B50FF0CBF8034894
:1026D00012F018FF0FF0E8F810BD000030160020CF
:1026E00010B50FF0BFF8034812F00CFF0FF0DCF844
:1026F00010BD00008C16002010B50FF0B3F8034891
:1027000012F000FF0FF0D0F810BD0000E816002016
:1027100010B50FF0A7F8034812F0F4FE0FF0C4F85C
:1027200010BD00004417002001F40072B2F5007FD4
:1027300000D100BFCA430280704710B500220023B9
:1027400040F66A14A14200D100BF0A12012494404D
:10275000A3B2DC43048010BD21B1828942F400524F
:10276000828104E082894DF6FF731A4082817047AE
:102770001AB1838A0B43838202E0838A8B4383826C
:10278000704702460020B1F5007F00D100BF1388DA
:102790000B400BB1012000E00020704770B50246ED
:1027A000002400230025002040F66A16B14200D123
:1027B00000BFC1F3421501F01F03012606FA03F31F
:1027C000012D02D19689334006E0022D02D1168AEE
:1027D000334001E0968A33400C12012606FA04F4D5
:1027E0001688344013B10CB1012000E0002070BD08
:1027F000F0B50346002400260025002040F66A17A5
:10280000B94200D100BF1846C1F3421401F01F06BF
:10281000012707FA06F5012C01D10C3004E0022C47
:1028200001D1103000E014301AB107682F4307605F
:1028300002E00768AF430760F0BD00002DE9FF47E5
:1028400005460E460024A14600BFA046B08900B14F
:1028500000BF2C8A24F44054F08804432C82AC89B5
:1028600041F20C608443B088318908437189084380
:102870000443AC81AC8A24F44074B0890443AC8234
:102880006846FFF7F9FB2048854202D01F48854281
:1028900002D1DDF80C9001E0DDF80890A88900F481
:1028A000004040B109EBC90000EB09103168490054
:1028B000B0FBF1F707E009EBC90000EB0910316844
:1028C0008900B0FBF1F76420B7FBF0F004012009A8
:1028D000642101FB1078A88900F4004040B1322047
:1028E00000EBC800B0FBF1F000F00700044308E083
:1028F000322000EB08106421B0FBF1F000F00F0073
:1029000004432C81BDE8FF87001001400014014002
:1029100001468888C0F30800704700BFFEE700004A
:10292000014609B900207047C8B220B1C8B20E4AAA
:10293000105C401CF7E701F47F4028B10A48C1F35E
:102940000722805C0930EEE701F47F0028B10648D9
:10295000C1F30742805C1130E5E7034800EB1160EA
:1029600000781930DFE700004E620108034908686B
:10297000884201D0012070470020FCE7B40100200C
:102980002DE9F04196B005465022194902A8FDF7FD
:1029900061FE18A7294638460DF0ABF880463A4646
:1029A000414616A00EF0E6FF40460DF0C5F81DA00A
:1029B0000EF0E0FF2E6815E0A6F1140494F8221042
:1029C000207F132804DC207F02AA52F8200000E0B8
:1029D000159823461022CDE9000141461AA00EF0B9
:1029E000C9FF3668AE42E7D1002016B0BDE8F081DD
:1029F000A06501086465766963650000252D2A2EAF
:102A00007320202020202020202074797065202031
:102A10002020202020202072656620636F756E7450
:102A20000A000000202D2D2D2D2D2D2D2D2D2D2D8D
:102A30002D2D2D2D2D2D2D2D2D202D2D2D2D2D2DD3
:102A40002D2D2D2D0A000000252D2A2E2A7320253C
:102A50002D32307320252D38640A00002DE9FC4703
:102A600005461FA7294638460DF043F881463A46E9
:102A700049461DA00EF07EFF48460DF05DF823A0EC
:102A80000EF078FF2E6825E0A6F1140404F11C0076
:102A90000FF025F8A8B904F11C000FF038F88046B3
:102AA000606A234610224946CDE900081FA00EF0B7
:102AB00061FF04F11C0011F089FD13A00EF05AFF14
:102AC00007E0606A23461022494600901DA00EF0E0
:102AD00051FF3668AE42D7D10020BDE8FC87000028
:102AE0006576656E74000000252D2A2E7320202047
:102AF0002020207365742020202073757370656E0C
:102B000064207468726561640A00000020202D2D25
:102B10002D2D2D2D2D2D2D2D202D2D2D2D2D2D2DF2
:102B20002D2D2D2D2D2D2D0A00000000252D2A2EB6
:102B30002A73202030782530387820253033643AC5
:102B400000000000252D2A2E2A7320203078253001
:102B5000387820300A0000002DE9FE43054624A7FE
:102B6000294638460CF0C5FF81463A46494622A020
:102B70000EF000FF48460CF0DFFF28A00EF0FAFE32
:102B80002E682FE0A6F1140404F11C000EF0A7FF3C
:102B9000B8B904F11C000EF0BAFF8046208D618D9B
:102BA00023461022CDE901080091494622A00EF0EB
:102BB000E1FE04F11C0011F009FD25A00EF0DAFE83
:102BC0000FE004F11C000EF0A2FF8046208D618D05
:102BD00023461022CDE90108009149461DA00EF0C0
:102BE000C9FE3668AE42CDD10020BDE8FE830000AC
:102BF0006D61696C626F7800252D2A2E7320656ED9
:102C00007472792073697A652073757370656E6468
:102C1000207468726561640A00000000202D2D2D6B
:102C20002D20202D2D2D2D202D2D2D2D2D2D2D2DFB
:102C30002D2D2D2D2D2D0A00252D2A2E2A732025F0
:102C40003034642020253034642025643A000000AC
:102C50000A000000252D2A2E2A73202530346420F6
:102C600020253034642025640A0000002DE9FE434D
:102C7000054613A7294638460CF03BFF80463A46E6
:102C8000414611A00EF076FE40460CF055FF1AA00A
:102C90000EF070FE2E680EE0A6F11404D4E90902CD
:102CA000216A2346CDE900120290102241461DA060
:102CB0000EF060FE3668AE42EED10020BDE8FE8325
:102CC0006D656D6865617000252D2A2E732020705A
:102CD0006F6F6C2073697A6520206D617820757341
:102CE00065642073697A6520617661696C61626CE4
:102CF000652073697A650A00202D2D2D2D2D2D2D2F
:102D00002D2D2D202D2D2D2D2D2D2D2D2D2D2D2D00
:102D10002D202D2D2D2D2D2D2D2D2D2D2D2D2D2DF0
:102D20000A000000252D2A2E2A7320252D3031304F
:102D30006420252D3031336420252D3035640A0080
:102D40002DE9FF41054621A7294638460CF0D1FE62
:102D500080463A4641461FA00EF00CFE40460CF05D
:102D6000EBFE26A00EF006FE2E6828E0A6F1140465
:102D7000E06BA8B1D4E90B31626AE06BCDE90023C6
:102D8000CDE9021023461022414625A00EF0F2FDA7
:102D900004F1340011F01AFC20A00EF0EBFD0DE060
:102DA000D4E90B30626AE16BCDE90023CDE9020181
:102DB00023461022414621A00EF0DCFD3668AE42CB
:102DC000D4D1002004B0BDE8F08100006D656D70C5
:102DD0006F6F6C00252D2A2E7320626C6F636B2041
:102DE000746F74616C2066726565207375737065AD
:102DF0006E64207468726561640A0000202D2D2DB8
:102E00002D20202D2D2D2D20202D2D2D2D202D2D33
:102E10002D2D2D2D2D2D2D2D2D2D2D2D0A0000008C
:102E2000252D2A2E2A732025303464202025303485
:102E3000642020253034642025643A00252D2A2E74
:102E40002A73202530346420202530346420202546
:102E50003034642025640A002DE9FC47054622A78A
:102E6000294638460CF045FE81463A46494621A09F
:102E70000EF080FD48460CF05FFE25A00EF07AFDB6
:102E80002E682BE0A6F1140404F11C000EF027FEBE
:102E9000A8B904F11C000EF03AFE8046A08D23462E
:102EA00010224946CDE900081FA00EF063FD04F191
:102EB0001C0011F08BFB21A00EF05CFD0DE004F175
:102EC0001C000EF024FE8046A08D234610224946A9
:102ED000CDE900081AA00EF04DFD3668AE42D1D102
:102EE0000020BDE8FC8700006D736771756575652E
:102EF00000000000252D2A2E7320656E7472792043
:102F000073757370656E64207468726561640A001D
:102F1000202D2D2D2D20202D2D2D2D2D2D2D2D2D08
:102F20002D2D2D2D2D0A0000252D2A2E2A7320252A
:102F3000303464202025643A000000000A000000BC
:102F4000252D2A2E2A732025303464202025640A5A
:102F5000000000002DE9FF47054617A7294638461F
:102F60000CF0C7FD81463A46494615A00EF002FD19
:102F700048460CF0E1FD1BA00EF0FCFC2E6814E0AE
:102F8000A6F1140404F11C000EF0C1FD804694F873
:102F900027001022A16A2346CDE90208CDE90021CD
:102FA000494618A00EF0E6FC3668AE42E8D1002093
:102FB00004B0BDE8F08700006D757465780000000E
:102FC000252D2A2E732020206F776E6572202068B1
:102FD0006F6C642073757370656E642074687265BD
:102FE00061640A00202D2D2D2D2D2D2D2D202D2D10
:102FF0002D2D202D2D2D2D2D2D2D2D2D2D2D2D2D0E
:103000002D0A0000252D2A2E2A7320252D382E2A40
:103010007320253034642025640A00002DE9FC4724
:10302000054622A7294638460CF063FD81463A46FC
:10303000494621A00EF09EFC48460CF07DFD25A0DF
:103040000EF098FC2E682BE0A6F1140404F11C008D
:103050000EF045FDA8B904F11C000EF058FD8046A5
:10306000A08C234610224946CDE900081FA00EF08F
:1030700081FC04F11C0011F0A9FA15A00EF07AFCF5
:103080000DE004F11C000EF042FD8046A08C2346AA
:1030900010224946CDE9000818A00EF06BFC3668F6
:1030A000AE42D1D10020BDE8FC87000073656D61A0
:1030B00070686F7265000000252D2A2E732076201F
:1030C000202073757370656E642074687265616426
:1030D0000A000000202D2D2D202D2D2D2D2D2D2DE4
:1030E0002D2D2D2D2D2D2D0A00000000252D2A2EF1
:1030F0002A7320253033642025643A00252D2A2E9A
:103100002A7320253033642025640A002DE9FC5FF2
:1031100005460FF2BC09294648460CF0EAFC8346F6
:103120004A4659462C480EF025FC58460CF004FD42
:103130002AA00EF01FFCD5F8008043E0A8F114048B
:1031400094F83D00234610225946009033A00EF01B
:1031500011FC94F83C0000F00F06012E03D132A0C0
:103160000EF008FC0FE0022E03D132A00EF002FC9C
:1031700009E01EB932A00EF0FDFB04E0042E02D1DE
:1031800032A00EF0F7FB276B00E07F1C3878232875
:10319000FBD0D4E90C10791A401A64214843616BC2
:1031A000B0FBF1FAA16B206DCDE90001636A206BE1
:1031B000C01A636BC1181A46534627A00EF0DAFBFB
:1031C000D8F80080A845B9D10020BDE8FC9F0000D8
:1031D000746872656164000050B20108202D2D2DC5
:1031E00020202D2D2D2D2D2D2D202D2D2D2D2D2D36
:1031F0002D2D2D2D202D2D2D2D2D2D2D2D2D2D2019
:10320000202D2D2D2D2D2D20202D2D2D2D2D2D2D15
:103210002D2D2D202D2D2D0A00000000252D2A2ECC
:103220002A73202533642000207265616479202090
:10323000000000002073757370656E64000000006C
:1032400020696E69742020200000000020636C6FEC
:103250007365202000000000203078253038782069
:1032600030782530387820202020253032642525FC
:1032700020202030782530387820253033640A002B
:103280002DE9FC4705461BA7294638460CF031FCC2
:1032900080463A46414619A00EF06CFB40460CF0C1
:1032A0004BFC20A00EF066FB2E6817E0A6F114047C
:1032B000D4E90B0123461022CDE90001414622A0AA
:1032C0000EF058FB607C00F0010018B124A00EF055
:1032D00051FB02E025A00EF04DFB3668AE42E5D171
:1032E00010F0C2FD8146494624A00EF043FB0020A9
:1032F000BDE8FC8774696D6572000000252D2A2EDB
:10330000732020706572696F64696320202074697E
:103310006D656F757420202020202020666C616709
:103320000A000000202D2D2D2D2D2D2D2D2D2D2091
:103330002D2D2D2D2D2D2D2D2D2D202D2D2D2D2DCA
:103340002D2D2D2D2D2D0A00252D2A2E2A732030CE
:103350007825303878203078253038782000000003
:103360006163746976617465640A00006465616311
:10337000746976617465640A000000006375727296
:10338000656E74207469636B3A3078253038780A3A
:10339000000000002DE9F0438BB005468946174632
:1033A00000242DB940F221121C491DA00DF030F966
:1033B0002FB94FF4917219491AA00DF029F900E0C4
:1033C000641C285D202804D0285D092801D04C45C4
:1033D000F6D324B94FF0FF300BB0BDE8F08321469F
:1033E00028460CF091FA064616B94FF0FF30F3E785
:1033F000282101A8FDF782F901AA494628460CF0C8
:10340000F7FA8046B8F1000F02D14FF0FF30E3E742
:1034100001A94046B04738600020DDE7F4660108A6
:10342000636D6400726574700000000070B504463E
:1034300024B95922144915A00DF0EAF8206B007840
:10344000232809D1216B606A884205D9D4E90C018F
:103450000844616A88420CD2214611A00EF08AFA13
:1034600005F04BFBFCF72CFF054600BF002DFDD1FE
:1034700008E0206B2030616A814203D821460FA00A
:103480000EF078FA70BD00003D6401087468726542
:10349000616420213D2052545F4E554C4C00000089
:1034A0007468726561643A257320737461636B207C
:1034B0006F766572666C6F770A0000007761726ED6
:1034C000696E673A20257320737461636B2069739A
:1034D00020636C6F736520746F20656E64206F6667
:1034E00020737461636B20616464726573732E0A68
:1034F000000000002DE9FC5F04468B4616461F467F
:10350000DDE90C9ADDE90E5804F11C004060006012
:1035100000BFA662E762C4F83090C4F834A023214B
:10352000D4E90C020EF093FDD4E90C3C63441A1F5D
:10353000174BD4E90A010EF0DFF86062202D04DB9E
:103540009E22144914A00DF063F83834A5716571FA
:103550000020A060C4F81480C4F818802060207196
:1035600020656065383C00902346144A214601904E
:1035700004F1540010F038FD00BF1148006818B184
:1035800020460F490968884700BF0020BDE8FC9F1E
:103590003D3901088B6401087072696F7269747932
:1035A000203C2052545F5448524541445F50524998
:1035B0004F524954595F4D4158000000693D010880
:1035C000C80100202DE9F04704460E4617469846EC
:1035D000DDF8209084F81190607C20F00100607488
:1035E0006662A76200202063C4F82C80002506E0F4
:1035F00004F11C0101EBC5000EF038FA6D1C012D21
:10360000F6DBBDE8F08710B50246002001460EE06B
:1036100002F11C0303EBC100D0E900436360D0E971
:10362000003423604060006000BF481C014601294F
:10363000EEDB10BD2DE9F04704460F46904604B17D
:103640002FB94FF4E372404940A00CF0E1FFFCF7C2
:1036500037FE8246206DC0F38F2000282DD1002632
:10366000656D2DB94FF4E872374943A00CF0D0FFD7
:103670002868012813D001202860A06C006928B9AF
:1036800040F2D512304941A00CF0C2FFA06C0123DA
:1036900042463946D0F810C02046E04701E06FF0BE
:1036A00006065046FCF710FE16B94046BDE8F08706
:1036B00030460FF00FFD0020F8E7656D002620462C
:1036C0000DF092FC81462DB940F2E5121E4939A059
:1036D0000CF09EFFC84501D2464600E04E46E88801
:1036E0008119206DC0F38F20814207D2EA882868B3
:1036F0008118324638460EF065FA1CE0206DC0F3A2
:103700008F20EB88C21A2868C11838460EF05AFA82
:10371000EB8803EB060C236DC3F38F23ACEB0302A2
:10372000236DC3F38F233B44B5F806C0A3EB0C0015
:1037300029680EF047FA314620460DF05BFC5046F2
:10374000FCF7C2FD3046B1E70468010828736572D2
:1037500069616C20213D2052545F4E554C4C29200C
:10376000262620286461746120213D2052545F4E3A
:10377000554C4C290000000072785F646D61202177
:103780003D2052545F4E554C4C00000073657269E9
:10379000616C2D3E6F70732D3E646D615F7472615C
:1037A0006E736D697420213D2052545F4E554C4C10
:1037B0000000000072785F6669666F20213D20522C
:1037C000545F4E554C4C00002DE9F04704468846A6
:1037D0001646A56D4FF0FF3332464146281D0DF0C9
:1037E000CFF90746CFB9FCF76BFD81462868012861
:1037F0000DD0012028604846FCF766FDA06C02232E
:1038000032464146D0F810C02046E04702E0484624
:10381000FCF75AFD3046BDE8F08738460FF05AFCF9
:103820000020F8E770B505466C6D2CB940F25D12CA
:103830000F4910A00CF0ECFEA088E188884207D167
:10384000A06808B9002070BD286DC0F38F20FAE78A
:10385000A088E188884203DDA088E188401AF2E769
:10386000E088A188411A286DC0F38F20401AEAE74A
:10387000AD67010872785F6669666F20213D20524E
:10388000545F4E554C4C00002DE9F04706460F465C
:1038900015462EB940F215121E491FA00CF0B8FEB5
:1038A000A846746D2CB940F219121A491FA00CF0E9
:1038B000AFFE28E0FCF704FD8246E088A18888423C
:1038C00005D1A06818B95046FCF7FEFC1DE0E18860
:1038D000206810F80190E088401CE080E188306D9D
:1038E000C0F38F20814201DB0020E080A068012826
:1038F00001D10020A0605046FCF7E6FC87F800905C
:103900007F1C6D1E00BF002DD4D100BFA8EB0500A9
:10391000BDE8F0878F67010873657269616C2021CB
:103920003D2052545F4E554C4C00000072785F664B
:1039300069666F20213D2052545F4E554C4C00006B
:103940002DE9F04105460E4614462DB940F24512C8
:10395000114912480CF05CFEA046AF6D2FB940F241
:1039600049120D490EA00CF053FE0FE03178A86CFF
:10397000826828469047401C28B94FF0FF313846EE
:103980000CF0ECFE02E0761C641E00BF002CEDD1B2
:10399000A8EB0400BDE8F0819E670108F839000833
:1039A000747820213D2052545F4E554C4C0000004D
:1039B0002DE9F04106460F46144626B9E2220D498C
:1039C0000DA00CF025FEA0460DE0B06CC16830469D
:1039D00088470546681C00B907E03D707F1C641EDF
:1039E0000A2D00D101E0002CEFD100BFA8EB0400AC
:1039F000BDE8F0816F67010873657269616C202111
:103A00003D2052545F4E554C4C0000002DE9F041D2
:103A100004460E46154624B9F6220F490F480CF00D
:103A2000F7FD2F4613E030780A2809D194F82000DA
:103A300000F0400020B1A06C0D2182682046904724
:103A40003178A06C826820469047761C6D1E002D50
:103A5000E9D1781BBDE8F0817F670108F8390008DB
:103A6000034611B1012902D100E000E000BF00BF10
:103A7000002070472DE9F0410446884616461F464F
:103A8000254625B92422094909A00CF0C1FDA86FDB
:103A900020B9252205490AA00CF0BAFD3B46324662
:103AA0000021A86F0FF056FDBDE8F0813C690108C8
:103AB00062757320213D2052545F4E554C4C0000DE
:103AC0006275732D3E6F776E657220213D205254D2
:103AD0005F4E554C4C0000002DE9F04104468846ED
:103AE00016461F46254625B93222094909A00CF081
:103AF0008FFDA86F20B9332205490AA00CF088FD7C
:103B00003B4600223146A86F0FF024FDBDE8F0814E
:103B10005169010862757320213D2052545F4E5552
:103B20004C4C00006275732D3E6F776E65722021DC
:103B30003D2052545F4E554C4C000000034611B1DD
:103B4000012902D100E000E000BF00BF0020704763
:103B50002DE9F0410446884616461F46254625B9FC
:103B60006622094909A00CF053FDA86C20B9672210
:103B700005490BA00CF04CFD3B463246002128467F
:103B80000FF0E8FCBDE8F0817E69010864657669A4
:103B9000636520213D2052545F4E554C4C0000007F
:103BA0006465766963652D3E62757320213D205200
:103BB000545F4E554C4C00002DE9F04104468846B8
:103BC00016461F46254625B97422094909A00CF05E
:103BD0001FFDA86C20B9752205490BA00CF018FD3B
:103BE0003B460022314628460FF0B4FCBDE8F08188
:103BF0009269010864657669636520213D2052540D
:103C00005F4E554C4C0000006465766963652D3E3F
:103C100062757320213D2052545F4E554C4C00007C
:103C20002DE9F0410446002694F82000C0F340003E
:103C300020B994F8200000F0010070B194F8200041
:103C4000C0F34000B8B994F8200000F0010090B132
:103C500094F82000C0F3800068B1A5682768214669
:103C6000164809F064FA204609F0CAFA0DB1384640
:103C7000A84701261FE0E08B404200B2608394F821
:103C8000200000F00100B0B194F82010C1F38001D1
:103C900019B9A18B494209B261831034217C89088A
:103CA000C943227C61F3820222742068616821602A
:103CB0006060103C00BF3046BDE8F081A02D0020C0
:103CC0002DE9F8438046214800680AF0B9FC0090CD
:103CD0001F4809F089F9044630E021461C4809F0E4
:103CE00088F90646608B0099084400B26083B4F9F5
:103CF0001A00002821DBB4F91A00218B884202DD6A
:103D0000208B00B260832046E168884705466068E2
:103D100018B12946D4E900029047B4F91A00218B62
:103D2000884209DB2046FFF77BFF07461FB10848A2
:103D300009F05AF9064600BF00BF3446002CCCD12A
:103D40000AF08CFC01490860BDE8F883E402002019
:103D5000A02D002010B503460BB9002010BD082B84
:103D600007DA581E074C54F82000405C5043000A04
:103D7000F4E7012000EB410050435C0090FBF4F0BD
:103D8000C0B2EBE7AC02002030B503460BB900200F
:103D900030BD012B01D1CC20FAE7C1EBC105581E83
:103DA000B5FBF0F0C4B20248005D5043000AEFE7F3
:103DB0007F6B010838B531A0006800904FF0D04308
:103DC000002101E002C3491C2D480068B1EB900FAF
:103DD000F8D300224FF0D043002104E020CB8D42E5
:103DE00000D0521C491C26480068B1EB900FF5D357
:103DF00012B19006000E38BD4FF0D043002104E010
:103E00001868C04318601B1D491C1D480068B1EBB1
:103E1000900FF5D300224FF0D043002105E020CBD6
:103E2000C843854200D0521C491C15480068B1EBBC
:103E3000900FF4D312B19006000EDCE74FF0D0449F
:103E4000002104E01DF8010004F8010B491C0429BD
:103E5000F8D300224FF0D044002107E014F8015BB2
:103E60001DF80100854200D0521C491C0429F5D3DD
:103E70000AB1D0B2BFE70020BDE7000055A55AAA9D
:103E8000A400002070B504460D4604F000FD00209B
:103E900070BD70B504460D4604F02FFE002070BDC5
:103EA00002460020704770B586B006460C46B56CD9
:103EB00001A8FEF7F1F96078082803DC0020ADF8CE
:103EC00008000AE06078102804DC4FF40060ADF8C8
:103ED000080002E0082006B070BD606802F028FF0C
:103EE000ADF81000207800F0020018B10220ADF803
:103EF0000A0002E00020ADF80A00207800F001007E
:103F000018B10120ADF80C0002E00020ADF80C0063
:103F1000207800F0040018B10020ADF8120002E093
:103F20008020ADF812000020ADF804004FF482703C
:103F3000ADF806004FF40070ADF80E00E86FFEF724
:103F400027F901A9E86FFEF789F90121E86FFEF76B
:103F500013F90021E86FFEF703F90020BBE700002A
:103F60001FB500240E236A460121702000F084F85A
:103F70000446002C79D101249DF800003C4948708A
:103F80009DF80100087000203A4908703AE00321CA
:103F90003748001D374A127850F822000170344823
:103FA000001D3449097850F8210041883048001D2F
:103FB000304A127850F82200C1804FF6FF712C4829
:103FC000001D2C4A127850F8220041802848001D1C
:103FD0002849097850F8210081882548001D254A84
:103FE000127850F8220001814FF6FF712048001D21
:103FF000204A127850F8220081801E480078401C28
:104000001C4908701B4800780228C0DB184800785B
:10401000002829DD16480078022825DC00201549F3
:1040200008701AE01348007810B101280ED106E09C
:10403000022210480178684602F0B8FE07E0082224
:104040000C480178684602F0B1FE00E000BF00BFF6
:1040500008480078401C0749087005480078054961
:1040600009788842DEDC00E00024204604B010BD60
:10407000E0190020A8000020F8B504460E461546B9
:104080001F460020009002F0EFFF204602F0A4FF40
:1040900003F03AF8012800D1F8BD304602F09CFF49
:1040A00003F032F8012800D1F6E703F005F802F03A
:1040B000DBFF44F0010002F08FFF03F025F8012838
:1040C00000D1E9E7002000900AE0012002F04AFF59
:1040D000BDF800106854BDF80000401C80B200908C
:1040E000781EBDF800108842EFD8002002F03AFF99
:1040F000BDF80010685402F0DFFF0020CCE700009C
:104100001FB56846FDF7B8FF4FF0E0200069C0F327
:10411000800008B1019C01E00198C4080348B4FB89
:10412000F0F003490880012048601FBD40420F00A5
:104130000000002070B504460FF096FE184909787B
:104140000843D0B10DF0AAFBB8B91548007810B9F2
:1041500001201349087013484068A04206D811484E
:104160004068B4FBF0F6304600F026F80D48406891
:10417000B4FBF0F100FB11440AE0002505E04FF428
:104180007A7000F01FF8681C85B2A542F7DB70BD9D
:104190004FF47A7104FB01F000F014F800BFF6E769
:1041A000080000200000002010B50CF0CBFF10BD6F
:1041B00010B50CF0D7FF10BD10B5044620460FF027
:1041C00083FB10BD2DE9F047074600264FF0E020A5
:1041D000D0F814901048008800FB07F8FFF7E4FFC0
:1041E0004FF0E020856911E04FF0E0208469AC4297
:1041F0000CD0AC4202D2281B064403E0A9EB040019
:10420000284406442546464500D300E0ECE700BFBD
:10421000FFF7CEFFBDE8F087000000202DE9F04158
:104220000646746C2169A068FCF71AFEA8B1FCF779
:1042300047F80746D4E906100D1A0021E161384617
:10424000FCF742F82DB1032040EA052130460DF07D
:1042500047F82169A068FCF7FDFCBDE8F081F0B5E6
:104260008FB005460E4617466C6CA661A068FCF739
:104270003DFD00BFA068FCF7E5FD0028FAD1E0682D
:1042800000902068001D0190029700200390A06913
:104290000490002005904FF4806006900020079065
:1042A00008904FF48070099040020A9000200B9013
:1042B00003200C9000200D900E906946A068FCF73A
:1042C000F1FD0FB0F0BD2DE9F04105466C6CFBF738
:1042D000F7FF80462068078820688788A068FCF779
:1042E000BBFDA1690E1AE069371AE6614046FBF78B
:1042F000EBFF2FB1032040EA072128460CF0F0FF26
:104300002068FEF705FBBDE8F08170B504460D4658
:104310000026207800F0010068B92068B5EB500F46
:1043200009D82946204600F01FF8206820F0010037
:10433000401C2060261D304670BD000010B50146AF
:10434000002009B9064809E00A1D0B6802EB53007A
:10435000031D044CA34200D3002000BF10BD000089
:10436000B82D0020B8AD002030B501F0030212B125
:1043700021F00301091D0A1D0368B2EB530F01D19F
:10438000026851080268B1EB520F0ED0031D5A1893
:10439000146824F0010414600468C1EB5404241F61
:1043A000156864F35F05156000BF026861F35F0282
:1043B000026030BD024613680BB911607047106887
:1043C000884202D948601160F8E7106807E0436846
:1043D0008B4200D905E0436803B902E04068002839
:1043E000F5D100BF43680BB143684B60416000BF2B
:1043F000E4E730B503464A681C688C4201D10020CE
:1044000009E0186804E044688C4200D102E040688A
:104410000028F8D100BFE0B10468044408348C429D
:1044200017D172B10C680C440834944209D10C685D
:1044300015682C44103405682C44046054684460AA
:1044400014E005680C6808342C4404604C6844602F
:104450000CE05AB10C680C440834944206D10D6843
:10446000146808342C440C6054684C6030BD02461B
:104470001068884204D14B68136000234B6070477A
:10448000106806E043688B4202D14B68436002E04B
:1044900040680028F6D100BF00BFF0E700F1080334
:1044A0005A180368083B5B1A136001604368536045
:1044B0004260704710B50446002C01F0218320694A
:1044C00010B12069FFF7F6FF20781C2881F00E83D9
:1044D000DFE810F00C0B1C00D901EF01F0011B020A
:1044E0001A0242026A029502C002EB02160341035D
:1044F0006C039703C203ED031A0439040C0BE704A1
:1045000022065B070E09D80A0B0BC10AA07800F03F
:10451000040048B300BF2420FA4909680870F9482C
:104520000068401CF749086000BF00BF00BFA068DA
:10453000007A09680870A0680089000AF1490968D2
:104540004870A0688068000CEE4909688870A0680F
:104550008068000EEB490968C87000BFE948006830
:10456000001DE84908608CE1A07800F002000028F6
:104570007ED0A06800287CD0017AC91E0C293ED2CA
:10458000DFE801F006077C3E3F7D78797E7A7B7F0D
:1045900000BFA17801F0080151B100BF2421D94A20
:1045A00012681170D7490968491CD64A11600AE09F
:1045B00000BF2521D34A12681170D2490968491CED
:1045C000D04A116000BF00BF00BF017BCD4A126816
:1045D00011708189090ACB4A12685170C168090CAF
:1045E000C84A12689170C168090EC64A1268D17033
:1045F00000BFC4490968091DC24A116000BF77E0C5
:1046000000BFA17801F0080151B100BF2421BD4ACB
:1046100012681170BB490968491CBA4A11600AE066
:1046200000BF2621B74A12681170B6490968491CB3
:10463000B44A116000BF00BF00BF017BB14A1268DD
:1046400011708189090AAF4A12685170C168090C5A
:10465000AC4A12689170C168090EAA4A1268D170FA
:1046600000BFA8490968091DA64A116000BF3FE0C4
:1046700040E03EE000BF00BF00BF00BF00BF00BF82
:1046800000BFA17801F0080151B100BF24219D4A6B
:10469000126811709B490968491C9A4A11600AE026
:1046A00000BF2721974A1268117096490968491C72
:1046B000944A116000BF00BF00BF017B914A12689D
:1046C00011708189090A8F4A12685170C168090CFA
:1046D0008C4A12689170C168090E8A4A1268D170BA
:1046E00000BF88490968091D864A116000BF00BFE4
:1046F00000BFC6E0A06800287ED0417CC91E0C29FE
:1047000040D2DFE801F00607804041817C7D827E57
:104710007F8300BFA17801F0080151B100BF2421BF
:10472000784A1268117077490968491C754A116006
:104730000AE000BF2521734A1268117071490968A7
:10474000491C704A116000BF00BF00BF00F1140196
:104750006C4A12681170090A6A4A1268517000F1B5
:104760001401090C674A1268917000F11401090ED6
:10477000644A1268D17000BF62490968091D614A24
:10478000116000BF7BE000BFA17801F0080151B1CA
:1047900000BF24215B4A126811705A490968491CFC
:1047A000584A11600AE000BF2621564A126811706B
:1047B00054490968491C534A116000BF00BF00BF3B
:1047C00000F114014F4A12681170090A4D4A12682B
:1047D000517000F11401090C4A4A1268917000F1FD
:1047E0001401090E474A1268D17000BF4549096893
:1047F000091D444A116000E042E000BF3FE000BFF5
:1048000000BF00BF00BF00BF00BF00BFA17801F024
:10481000080151B100BF24213A4A12681170394988
:104820000968491C374A11600AE000BF2721354A50
:104830001268117033490968491C324A116000BF7F
:1048400000BF00BF00F114012E4A12681170090A5E
:104850002C4A1268517000F11401090C294A12689F
:10486000917000F11401090E264A1268D17000BF40
:1048700024490968091D234A116000BF00BF00BF19
:1048800000BF01F037B900BF22201E490968087037
:104890001C480068401C1B49086000BF00BF20790D
:1048A0000968087017480068401C1649086000BF76
:1048B000E7E700BF00BF24201249096808701148CB
:1048C0000068401C0F49086000BF00BF00BF20798E
:1048D00009680870A088000A0A4909684870606879
:1048E000000C0849096888706068000E054909686D
:1048F000C87000BF03480068001D0249086000BF7F
:10490000BFE70000F401002000BF00BF2420FD49E4
:1049100009680870FB480068401CFA49086000BF3D
:1049200000BF00BF207909680870A088000AF54917
:10493000096848706068000CF2490968887060680E
:10494000000EF0490968C87000BFEE480068001DFD
:10495000EC49086000BF94E76078012809D100BFE6
:10496000E84909680870E7480068401CE5490860A4
:1049700019E06078022809D100BFE249096808708F
:10498000E0480068401CDF4908600CE060780328BC
:1049900009D100BFDB4909680870DA480068401C8B
:1049A000D849086000BF6CE7607801280AD100BFD1
:1049B0000420D44909680870D2480068401CD149D5
:1049C00008601BE0607802280AD100BF0520CD49AD
:1049D00009680870CB480068401CCA4908600DE0AF
:1049E000607803280AD100BF0620C649096808700C
:1049F000C4480068401CC349086000BF41E76078B4
:104A000001280AD100BF0D20BE4909680870BD48C1
:104A10000068401CBB4908601BE0607802280AD18E
:104A200000BF0E20B74909680870B6480068401CEE
:104A3000B44908600DE0607803280AD100BF0F2058
:104A4000B04909680870AF480068401CAD4908606B
:104A500000BF16E7607801280AD100BF0720A949E6
:104A600009680870A7480068401CA64908601BE058
:104A7000607802280AD100BF0820A249096808709E
:104A8000A0480068401C9F4908600DE0607803283A
:104A90000AD100BF09209B4909680870994800683D
:104AA000401C9849086000BFEBE6607801280AD1F5
:104AB00000BF0A2093490968087092480068401CAA
:104AC000904908601BE0607802280AD100BF0B20E3
:104AD0008C49096808708B480068401C8949086047
:104AE0000DE0607803280AD100BF0C2085490968D1
:104AF000087084480068401C8249086000BFC0E616
:104B0000607801280AD100BF10207E49096808702A
:104B10007C480068401C7B4908601BE060780228E4
:104B20000AD100BF112077490968087075480068EC
:104B3000401C744908600DE0607803280AD100BF6A
:104B400012207049096808706E480068401C6D4961
:104B5000086000BF95E6607801280AD100BF1320E5
:104B600068490968087067480068401C6549086022
:104B70001BE0607802280AD100BF1420614909684F
:104B8000087060480068401C5E4908600DE060786D
:104B900003280AD100BF15205A49096808705948EE
:104BA0000068401C5749086000BF6AE66078012829
:104BB0000AD100BF1620534909680870514800689F
:104BC000401C504908601BE0607802280AD100BFF1
:104BD00017204C49096808704A480068401C494938
:104BE00008600DE0607803280AD100BF182045490D
:104BF0000968087043480068401C4249086000BFCB
:104C00003FE6607801280AD100BF19203D490968B4
:104C100008703C480068401C3A4908601BE0607816
:104C200002280AD100BF1A203649096808703548A1
:104C30000068401C334908600DE0607803280AD101
:104C400000BF1B202F49096808702E480068401CCF
:104C50002C49086000BF14E6607801280AD100BF23
:104C60001C2028490968087026480068401C25490E
:104C700008601BE0607802280AD100BF1D2021498E
:104C8000096808701F480068401C1E4908600DE054
:104C9000607803280AD100BF1E201A4909680870ED
:104CA00018480068401C1749086000BFE9E56078B3
:104CB00001280AD100BF1F20124909680870114855
:104CC0000068401C0F4908601BE0607802280AD188
:104CD00000BF20200B49096808700A480068401C82
:104CE000084908600DE0607803280AD100BF212040
:104CF00004490968087003480068401C01490860BD
:104D000000BFBEE5F401002000212269D2B1226972
:104D1000D06801E0491CC0680028FBD100BF2C22EC
:104D2000FC4B1B681A70FB4A1268521CF94B1A6044
:104D300000BF00BF1B681970F64A1268521CF54B81
:104D40001A6000BF9DE52069C0B320690078012882
:104D500050D120694078012804D0022818D00328B7
:104D600043D12CE000BF2820EA4909680870E948CF
:104D70000068401CE749086000BF00BF2D2009689B
:104D80000870E4480068401CE249086000BF30E059
:104D900000BF2920DF4909680870DE480068401C10
:104DA000DC49086000BF00BF2E2009680870D948A0
:104DB0000068401CD749086000BF1AE01AE000BF35
:104DC0002A20D44909680870D2480068401CD1499B
:104DD000086000BF00BF2F2009680870CD48006838
:104DE000401CCC49086000BF03E0032000F0CCFE6B
:104DF00000BF55E020690078192851D1206940781A
:104E000000F00F00012804D0022818D0032842D156
:104E10002BE000BF2820BF4909680870BD48006822
:104E2000401CBC49086000BF00BF2D200968087005
:104E3000B8480068401CB749086000BF2FE000BFB9
:104E40002920B44909680870B2480068401CB1497B
:104E5000086000BF00BF2E2009680870AD480068D8
:104E6000401CAC49086000BF19E000BF2A20A949D6
:104E700009680870A7480068401CA649086000BF80
:104E800000BF2F2009680870A2480068401CA14993
:104E9000086000BF03E0032000F076FE00BF00BF03
:104EA000EFE4206900287DD020690078012879D1BD
:104EB000216988686178012904D002295DD003291D
:104EC0005AD1BDE000BF2521924A12681170914964
:104ED0000968491C8F4A116000BF00BF00BF00F184
:104EE000140112681170090A8A4A1268517000F19F
:104EF0001401090C874A1268917000F11401090E1F
:104F0000844A1268D17000BF82490968091D814A2C
:104F1000116000BF00BF2221126811707D4909682D
:104F2000491C7C4A116000BF00BF0121126811704A
:104F300078490968491C774A116000BF00BF012108
:104F40001268117073490968491C724A116000BFE8
:104F500000BF2821126811706E490968491C6D4A0A
:104F6000116000BF00BF2F211268117069490968E4
:104F7000491C684A116000BFC9E000BF2621654A8C
:104F80001268117063490968491C624A116000BFC8
:104F900000BF00BF00F1140112681170090A5D4AD8
:104FA000126800E0B5E0517000F11401090C594A93
:104FB0001268917000F11401090E564A1268D170FE
:104FC00000BF54490968091D524A116000BF00BF63
:104FD0002321126811704F490968491C4D4A11601C
:104FE00000BF00BF00BF0121126811700021494AB3
:104FF0001268517000BF47490968891C454A116011
:1050000000BF00BF02211268117042490968491CA3
:10501000404A116000BF00BF2921126811703D494C
:105020000968491C3B4A116000BF00BF2F2112686C
:10503000117038490968491C364A116000BF66E0A2
:1050400000BF2721334A1268117032490968491C90
:10505000304A116000BF00BF00BF00F114011268A8
:105060001170090A2B4A1268517000F11401090CE1
:10507000284A1268917000F11401090E254A12683D
:10508000D17000BF23490968091D224A116000BF81
:1050900000BF2421126811701E490968491C1D4A6D
:1050A000116000BF00BF00BF012112681170002114
:1050B000184A12685170174A12689170154A12689E
:1050C000D17000BF13490968091D124A116000BF61
:1050D00000BF0321126811700E490968491C0D4A6E
:1050E000116000BF00BF2A211268117009490968C8
:1050F000491C084A116000BF00BF2F2112681170BF
:1051000004490968491C034A116000BF00BF00BF81
:1051100000BF20E4F4010020206900287ED020692F
:10512000007801287AD1216988686178012904D042
:1051300002295DD003295AD1BDE000BF2521FE4AD6
:1051400012681170FC490968491CFB4A116000BFD4
:1051500000BF00BF00F1140112681170090AF64A7D
:105160001268517000F11401090CF34A1268917031
:1051700000F11401090EF04A1268D17000BFEE4927
:105180000968091DEC4A116000BF00BF22211268A6
:105190001170E9490968491CE74A116000BF00BF66
:1051A000012112681170E4490968491CE24A116042
:1051B00000BF00BF042112681170DF490968491C53
:1051C000DD4A116000BF00BF282112681170DA4962
:1051D0000968491CD84A116000BF00BF2F2112681E
:1051E0001170D5490968491CD34A116000BFC9E054
:1051F00000BF2621D04A12681170CF490968491CA6
:10520000CD4A116000BF00BF00BF00F11401126859
:105210001170090AC84A1268517000E0B4E000F148
:105220001401090CC44A1268917000F11401090EAE
:10523000C14A1268D17000BFBF490968091DBE4A42
:10524000116000BF00BF232112681170BA490968BC
:10525000491CB94A116000BF00BF00BF012112689C
:1052600011700021B44A1268517000BFB249096838
:10527000891CB14A116000BF00BF0521126811707E
:10528000AD490968491CAC4A116000BF00BF292123
:1052900012681170A8490968491CA74A116000BF2B
:1052A00000BF2F2112681170A3490968491CA24A46
:1052B000116000BF66E000BF27219F4A126811708D
:1052C0009D490968491C9C4A116000BF00BF00BF8E
:1052D00000F1140112681170090A974A126851709E
:1052E00000F11401090C944A1268917000F1140144
:1052F000090E914A1268D17000BF8F490968091DD3
:105300008D4A116000BF00BF2421126811708A49C4
:105310000968491C884A116000BF00BF00BF012115
:10532000126811700021844A12685170824A126812
:105330009170814A1268D17000BF7F490968091DC8
:105340007D4A116000BF00BF0621126811707A49C2
:105350000968491C784A116000BF00BF2A21126801
:10536000117075490968491C734A116000BF00BF7C
:105370002F211268117070490968491C6E4A11602A
:1053800000BF00BF00BF00BFB4E3206900287DD08C
:1053900020690078012879D121698868617801291C
:1053A00004D0022973D0032972D110E100BF242157
:1053B000614A1268117060490968491C5E4A1160AF
:1053C00000BF00BF00BF00F1140112681170090A8C
:1053D000594A1268517000F11401090C564A1268BA
:1053E000917000F11401090E534A1268D17000BF88
:1053F00051490968091D504A116000BF00BF2521AD
:10540000126811704C490968491C4B4A116000BF71
:1054100000BF00BF00F1140112681170090A464A6A
:105420001268517000F11401090C434A126891701E
:1054300000F11401090E404A1268D17000BF3E49C4
:105440000968091D3C4A116000BF00BF2221126893
:10545000117039490968491C374A116000BF00BF03
:1054600001211268117034490968491C324A1160DF
:1054700000BF00BF0121126811702F490968491C43
:105480002D4A116000BF00BF282102E02FE113E088
:105490002BE11268117028490968491C264A1160DD
:1054A00000BF00BF2B211268117023490968491CF5
:1054B000214A116000BF18E100BF24211E4A126872
:1054C00011701D490968491C1B4A116000BF00BFCB
:1054D00000BF00F1140112681170090A164A12681F
:1054E000517000F11401090C134A1268917000F117
:1054F0001401090E104A1268D17000BF0E490968E4
:10550000091D0D4A116000BF00BF262112681170ED
:1055100009490968491C084A116000BF00BF00BF63
:1055200000F1140112681170090A034A12685170DF
:1055300000F11401090C01E0F4010020FC4A12689A
:10554000917000F11401090EF94A1268D17000BF80
:10555000F7490968091DF64A116000BF00BF232101
:1055600012681170F2490968491CF14A116000BFC4
:1055700000BF00BF0121126811700021EC4A1268BF
:10558000517000BFEA490968891CE94A116000BFEF
:1055900000BF022112681170E5490968491CE44AFC
:1055A000116000BF00BF292112681170E04909682D
:1055B000491CDF4A116000BF00BF2B211268117027
:1055C000DB490968491CDA4A116000BF8DE000BF61
:1055D0002421D74A12681170D5490968491CD44A58
:1055E000116000BF00BF00BF00F11401126811700C
:1055F000090ACF4A1268517000F11401090CCC4A13
:105600001268917000F11401090EC94A1268D17034
:1056100000BFC7490968091DC54A116000BF00BF26
:10562000272112681170C2490968491CC04A1160DB
:1056300000BF00BF00BF00F1140112681170090A19
:10564000BB4A1268517000F11401090CB84A126883
:10565000917000F11401090EB54A1268D17000BFB3
:10566000B3490968091DB24A116000BF00BF242177
:1056700012681170AE490968491CAD4A116000BF3B
:1056800000BF00BF0121126811700021A84A1268F2
:105690005170A74A12689170A54A1268D17000BF74
:1056A000A3490968091DA24A116000BF00BF032178
:1056B000126811709E490968491C9D4A116000BF1B
:1056C00000BF2A211268117099490968491C984A3B
:1056D000116000BF00BF2B21126811709449096846
:1056E000491C934A116000BF00BF00BF00BF01E228
:1056F000206900287ED02069007801287AD12169AC
:1057000088686178012904D0022974D0032973D1F3
:1057100010E100BF2421864A12681170844909688B
:10572000491C834A116000BF00BF00BF00F1140193
:1057300012681170090A7E4A1268517000F1140152
:10574000090C7B4A1268917000F11401090E784A25
:105750001268D17000BF76490968091D744A11604A
:1057600000BF00BF25211268117071490968491CEA
:105770006F4A116000BF00BF00BF00F11401126842
:105780001170090A6A4A1268517000F11401090C7B
:10579000674A1268917000F11401090E644A126898
:1057A000D17000BF62490968091D614A116000BFDC
:1057B00000BF2221126811705D490968491C5C4ACA
:1057C000116000BF00BF01211268117058490968BB
:1057D000491C574A116000BF00BF042112681170B4
:1057E00053490968491C524A116000BF00BF282173
:1057F000126802E02EE112E02AE111704C490968BA
:10580000491C4B4A116000BF00BF2B211268117068
:1058100047490968491C464A116000BF18E100BFAA
:105820002421434A1268117041490968491C404AC1
:10583000116000BF00BF00BF00F1140112681170B9
:10584000090A3B4A1268517000F11401090C384AE8
:105850001268917000F11401090E354A1268D17076
:1058600000BF33490968091D314A116000BF00BFFC
:105870002621126811702E490968491C2C4A1160B2
:1058800000BF00BF00BF00F1140112681170090AC7
:10589000274A1268517000F11401090C244A126859
:1058A000917000F11401090E214A1268D17000BFF5
:1058B0001F490968091D1E4A116000BF00BF23214E
:1058C000126811701A490968491C194A116000BF11
:1058D00000BF00BF0121126811700021144A126834
:1058E000517000BF12490968891C114A116000BF3C
:1058F00000BF0521126811700D490968491C0C4A46
:10590000116000BF00BF29211268117008490968A1
:10591000491C074A116000BF00BF2B21126811709B
:1059200003490968491C024A116000BF90E0000069
:10593000F401002000BF2421724A126811707149DD
:105940000968491C6F4A116000BF00BF00BF00F129
:10595000140112681170090A6A4A1268517000F144
:105960001401090C674A1268917000F11401090EC4
:10597000644A1268D17000BF62490968091D614A12
:10598000116000BF00BF2721126811705D490968CE
:10599000491C5C4A116000BF00BF00BF00F1140148
:1059A00012681170090A574A1268517000F1140107
:1059B000090C544A1268917000F11401090E514A01
:1059C0001268D17000BF4F490968091D4D4A116026
:1059D00000BF00BF2421126811704A490968491CA0
:1059E000484A116000BF00BF00BF0121126811705A
:1059F0000021444A12685170424A12689170414A2B
:105A00001268D17000BF3F490968091D3D4A116005
:105A100000BF00BF0621126811703A490968491C8D
:105A2000384A116000BF00BF2A2112681170354941
:105A30000968491C334A116000BF00BF2B2112685E
:105A4000117030490968491C2E4A116000BF00BF1F
:105A500000BF00BF4EE000BF00BF00202949096819
:105A600008702849096848702649096888702549DE
:105A70000968C87000BF23480068001D21490860FC
:105A800000BF37E0A07800F0080068BB607801280C
:105A900004D002280ED0032824D117E000BF2D2007
:105AA00018490968087017480068401C15490860C3
:105AB00000BF18E000BF2E20124909680870114885
:105AC0000068401C0F49086000BF0CE000BF2F2099
:105AD0000C49096808700B480068401C09490860B7
